:100000000C94D1050C9419060C9419060C9419063D
:100010000C9419060C9419060C9419060C941906E4
:100020000C9419060C9419060C942E0F0C941906B6
:100030000C94A11D0C9419060C9419060C94190625
:100040000C9419060C9419060C9419060C941906B4
:100050000C9419060C94FA1D0C9419060C941906AC
:100060000C9419060C9466070C9419060C94190646
:100070000C9419060C9419060C9419060C94190684
:100080000C9419060C9419060C9419060C94190674
:100090000C9419060C9419060C9419060C94190664
:1000A0000C9419060C9419060C9419067C0DA30DDA
:1000B0009B0EA30D9B0EEF0D120E9B0E690E780E7C
:1000C000E313E3131B141B149614CA14C116C116B0
:1000D000E114C116721472147B16C1169016AE1676
:1000E0008800EA44E944E2440400050006000700F1
:1000F000080009000A000B000C000D000E000F00A4
:100100001000110012001300140015001600170053
:10011000180019001A001B001C001D001E001F0003
:1001200020002100220023002400250026002700B3
:10013000280029002A002B002C002D002E002F0063
:100140003000310032003300340035003600370013
:10015000380039003A003B003C003D003E003F00C3
:100160004000410042004300440045004600470073
:10017000480049004A004B004C004D004E004F0023
:1001800050005100520053005400550056005700D3
:10019000580059005A005B005C005D005E005F0083
:1001A00060006100620037006400F1A13600670062
:1001B000680069006A006B006C006D006E006F00E3
:1001C0007000710072007300890087008A008B0044
:1001D000E000E100E200E300E400E500E600E70003
:1001E0000100010001000100EA4401000100E244B5
:1001F0000100010001000100460001004A004B001F
:10020000010001004700480001000100E94401002D
:100210000100010001000100010001003A003B0063
:100220003C003D003E003F004000410042004300D2
:10023000010035004C00010001004400450052005F
:1002400049000100010050004F0029004D004E0000
:100250005100010001000100010001000100010046
:100260000100010001000100010001000100010086
:1002700001000100010001000100010001004D002A
:100280004A004E004B000100010001000100010086
:100290000100010001000100010001000100010056
:1002A0000100010001000100010001000100010046
:1002B0000100010001000100010001000100010036
:1002C00001000100010001004900010001000100DE
:1002D0000100010001000100010001000100010016
:1002E000041607090B0A1D1B06198005141A0815A8
:1002F0001C171E1F202123222E26242D25273012D5
:10030000182F0C13280F0D340E33313638111037D7
:100310002B2C352A8029807B79397A787D7E7C80E8
:1003200080808080808080808080808080808080CD
:1003300080808080808080808080808080808080BD
:1003400080808080808080808080808080808080AD
:100350008080808080808080808080504F5152805B
:10036000200025303258006D61747269785F696EC3
:10037000697420646F6E652E0A000A4C6F6F7020DE
:1003800073746172742E0A000A55534220636F6EB3
:10039000666967757265642E0A000A544D4B3A64AB
:1003A00032393231332F4C5546413A643661376425
:1003B000660A0034034E006500770074006F006E1B
:1003C0000020006B006500790062006F0061007220
:1003D000006400200063006F006E0076006500720C
:1003E0000074006500720000000E0374002E006DA2
:1003F000002E006B002E00000004030904090254C3
:1004000000030100A03209040000010301010009FA
:1004100021110100012240000705810308000A099B
:100420000401000103010200092111010001227FE2
:10043000000705820308000109040200010300000F
:100440000009211101000122220007058303400059
:10045000011201100100000008EDFE0188010101F8
:100460000200010631FF0974A1010975150026FF7C
:10047000009540750881020976150026FF00954019
:1004800075089102C005010902A1010901A10085B9
:100490000105091901290815002501950875018133
:1004A000020501093009311581257F950275088102
:1004B0000609381581257F950175088106050C0A06
:1004C00038021581257F950175088106C0C0050198
:1004D0000980A10185021601002637001A81002A31
:1004E000B700751095018100C0050C0901A10185B7
:1004F00003160100269C021A01002A9C0275109521
:10050000018100C005010906A101050719E029E7DD
:100510001500250195087501810295017508810175
:1005200005081901290595057501910295017503C5
:1005300091010507190029FF150026FF0095067592
:10054000088100C0636F6E73756D65723A20253047
:1005500034580A0073797374656D3A202530345825
:100560000A000A002530325820006B6579626F61FD
:1005700072643A20004C45443A20253032580A0033
:1005800025583A2530386225730A000A2020303178
:100590003233343536370A00290A002575002F001A
:1005A0002575005D280025640020002564002000DA
:1005B00025640020002564007C0025303258006D41
:1005C0006F7573656B6579205B62746E7C782079DA
:1005D000207620685D287265702F61636C293A204F
:1005E0005B006D6B5F776865656C5F74696D655FF7
:1005F000746F5F6D6178203D2025640A006D6B5F2C
:10060000776865656C5F6D61785F737065656420A0
:100610003D2025640A006D6B5F74696D655F746FC2
:100620005F6D6178203D2025640A006D6B5F6D6110
:10063000785F7370656564203D2025640A006D6BEA
:100640005F696E74657276616C203D2025640A00D6
:100650006D6B5F64656C6179203D2025640A006DD7
:100660006B5F776865656C5F74696D655F746F5FFC
:100670006D6178203D2025640A006D6B5F776865A9
:10068000656C5F6D61785F7370656564203D2025E2
:10069000640A006D6B5F74696D655F746F5F6D6197
:1006A00078203D2025640A006D6B5F6D61785F7373
:1006B00070656564203D2025640A006D6B5F696E7E
:1006C00074657276616C203D2025640A006D6B5F55
:1006D00064656C6179203D2025640A000A00257557
:1006E00000363A20776865656C5F74696D655F7484
:1006F0006F5F6D61783A20000A00257500353A2059
:10070000776865656C5F6D61785F73706565643A85
:1007100020000A00257500343A2074696D655F7405
:100720006F5F6D61783A20000A00257500333A202A
:100730006D61785F73706565643A20000A00257505
:1007400000323A20696E74657276616C286D732987
:100750003A20000A00257500313A2064656C617901
:10076000282A31306D73293A20000A092D2056615C
:100770006C756573202D0A004D3E004D25643E20AA
:10078000003F007365742064656661756C740A00CF
:10079000433E200077686572652064656C74613A39
:1007A00020637572736F723D25642C2077686565D0
:1007B0006C3D25640A53656520687474703A2F2F68
:1007C000656E2E77696B6970656469612E6F7267FB
:1007D0002F77696B692F4D6F7573655F6B657973E3
:1007E0000A000A092D204D6F7573656B6579202D00
:1007F0000A4553432F713A09717569740A313A09F0
:1008000064656C6179282A31306D73290A323A099E
:10081000696E74657276616C286D73290A333A09C2
:100820006D61785F73706565640A343A0974696D47
:10083000655F746F5F6D61780A353A097768656541
:100840006C5F6D61785F73706565640A363A09772D
:100850006865656C5F74696D655F746F5F6D617805
:100860000A0A703A097072696E742076616C756557
:10087000730A643A097365742064656661756C7403
:10088000730A75703A092B310A646F776E3A092D35
:10089000310A706775703A092B31300A7067646FDE
:1008A000776E3A092D31300A0A7370656564203D10
:1008B0002064656C7461202A206D61785F737065B7
:1008C0006564202A2028726570656174202F207469
:1008D000696D655F746F5F6D6178290A003F004D37
:1008E0003E2000433E20004C25640A000A092D20CA
:1008F000436F6E736F6C65202D0A4553432F713A19
:1009000009717569740A6D3A096D6F7573656B6568
:10091000790A000A092D204D61676963202D0A6458
:100920003A0964656275670A783A096465627567B1
:10093000206D61747269780A6B3A09646562756743
:10094000206B6579626F6172640A6D3A0964656251
:100950007567206D6F7573650A763A0976657273EF
:10096000696F6E0A733A097374617475730A633A36
:1009700009636F6E736F6C65206D6F64650A302D4F
:10098000343A096C61796572302D34284631302D46
:100990004634290A506175733A09626F6F746C6F3F
:1009A000616465720A003F0074696D65725F72650B
:1009B0006164333228293A202530346C580A006BA0
:1009C0006579626F6172645F69646C653A2025586D
:1009D0000A006B6579626F6172645F70726F746F29
:1009E000636F6C3A2025580A00686F73745F6B65FB
:1009F00079626F6172645F6C65647328293A20259F
:100A0000580A000A092D20537461747573202D0A49
:100A1000004743433A20352E342E30204156522D84
:100A20004C4942433A20322E302E30204156525FFC
:100A3000415243483A20617672350A004F5054497A
:100A40004F4E533A204C554641204D4F5553454B40
:100A500045592045585452414B455920434F4E5318
:100A60004F4C4520434F4D4D414E44203430393694
:100A70000A004255494C443A20643239323133201D
:100A80002832303A33393A3236204D6172203130D3
:100A90002032303232290A005649443A2030784612
:100AA00045454428742E6D2E6B2E29205049443A1A
:100AB00020307838383031284E6577746F6E206B6F
:100AC0006579626F61726420636F6E7665727465BA
:100AD0007229205645523A203078303130310A00A0
:100AE000444553433A20636F6E7665727473204EAB
:100AF0006577746F6E206B6579626F6172642070C8
:100B0000726F746F636F6C20696E746F20555342FF
:100B10000A000A092D2056657273696F6E202D0A2E
:100B2000000A6D6F7573653A206F66660A000A6D7C
:100B30006F7573653A206F6E0A000A6B6579626F94
:100B40006172643A206F66660A000A6B6579626FAB
:100B50006172643A206F6E0A000A6D61747269787E
:100B60003A206F66660A000A6D61747269783A20ED
:100B70006F6E0A000A64656275673A206F6E0A003C
:100B80000A64656275673A206F66660A000A0A623F
:100B90006F6F746C6F616465722E2E2E2000433E61
:100BA000200011241FBECFEFDAE0DEBFCDBF04B6B8
:100BB00003FE28C08091560490915704A0915804D8
:100BC000B09159048730904BA740B04BD9F41092A4
:100BD000560410925704109258041092590414BEEF
:100BE0000FB6F894A89580916000886180936000AA
:100BF000109260000FBE1092010810920008E0E011
:100C0000F8E3099511E0A0E0B1E0E0ECFCE402C0FB
:100C100005900D92A433B107D9F724E0A4E3B1E025
:100C200001C01D92A635B207E1F70E948B0A0C9411
:100C30005E260C940000FF93EF93E0913401F09155
:100C40003501309709F00995EF91FF910895FC0166
:100C50008591803011F0EFDFFBCF0895FF27E0E2B0
:100C600030E247FF0CC0419597FF09C0EDE2609567
:100C7000709580959095611D711D811D911D27FFB7
:100C800002C0219530E350E2AA27660F771F881F24
:100C9000991FAA1FA41710F0A41B63955A95A9F7D2
:100CA000AA3008F0A95FA05DAF93F39561157105B7
:100CB0008105910541F7ED3211F4EF93F395F217A9
:100CC00018F43F93F395FBCF8F91B5DFFA95E1F7D9
:100CD0000895E991F9918591803021F0853219F0DC
:100CE000AADFF9CF089520E0E89455915532C1F379
:100CF000503311F4689455915A3348F4505390F39B
:100D0000220F022E220F220F200D250FF4CF0EF4FA
:100D1000219589919991533619F3533729F1533518
:100D200059F1BC0188279927E8945C3621F4899110
:100D3000999168945591543639F446EF7EF077FFD7
:100D40000DC08FEF9FEF0AC055374AE039F0583594
:100D500040E121F0523642E009F00895FF93EF930D
:100D60007DDFEF91FF91B7CFFF93EF93FC0181916E
:100D70008030B9F360DFFBCFFF93EF9368DFF1CFF3
:100D8000DF93CF93CDB7DEB72596A3DFCF91DF9169
:100D90000895809138048460809338040E943D0750
:100DA000E6E3F1E0119281E0E634F807D9F787E64F
:100DB00093E00C942706FF920F931F93CF93DF933A
:100DC0000E945207F82E082F192F0F3F8FEF180798
:100DD00009F445C09F93FF9282E693E09F938F931F
:100DE0000E94C00680E693E00E9427060F900F90B5
:100DF0000F900F90E80183E0D695C7958A95E1F7AB
:100E00006F2D67708C2F8F70F7FE13C00E949611A4
:100E1000811123C0CF70DD27CA5CDE4F0770112718
:100E200081E090E001C0880F0A95EAF79881892B4C
:100E300013C00E949611882381F0CF70DD27CA5C11
:100E4000DE4F0770112781E090E001C0880F0A95FE
:100E5000EAF780959881892388838F2D01C080E0EF
:100E6000DF91CF911F910F91FF900895E82FF0E04F
:100E7000EA5CFE4F80810895089587E68093CC0058
:100E80001092CD00E9ECF0E0808180698083808160
:100E900088608083EAECF0E08081808352985A9ADF
:100EA000789408952091460180914701821759F066
:100EB00030E0F901E85BFE4F80812F5F3F4F2093C8
:100EC000460190E008958FEF9FEF08951F920F92D3
:100ED0000FB60F9211242F933F934F938F939F93AD
:100EE000EF93FF938091470190E09C012F5F3F4F6C
:100EF00040914601421741F03091CE00FC01E85B81
:100F0000FE4F308320934701FF91EF919F918F9186
:100F10004F913F912F910F900FBE0F901F901895FA
:100F2000809154030895CF93DF9300D01F92CDB7E3
:100F3000DEB720914D04243021F523E029839B83E3
:100F40008A8382E08093E9008FEF9091E8008150DE
:100F500095FD06C095ED9A95F1F700008111F5CF4A
:100F60008091E80085FF0DC040E050E063E070E054
:100F7000CE0101960E94470C8091E8008E77809305
:100F8000E8000F900F900F90DF91CF910895CF93CD
:100F9000DF9300D01F92CDB7DEB720914D042430EF
:100FA00061F519821A821B8222E02983813891051A
:100FB00020F0805891099B838A8382E08093E90026
:100FC0008FEF9091E800815095FD06C095ED9A95C0
:100FD000F1F700008111F5CF8091E80085FF0DC089
:100FE00040E050E063E070E0CE0101960E94470CC3
:100FF0008091E8008E778093E8000F900F900F901B
:10100000DF91CF91089520914D04243051F522E0D5
:101010002093E9002FEF3091E800215035FD06C004
:1010200035ED3A95F1F700002111F5CF2091E80058
:1010300025FF17C020911001222341F021E02093C9
:10104000F10040E050E065E070E004C040E050E0B6
:1010500063E070E00E94470C8091E8008E778093F7
:10106000E8000895CF93DF9320914D04243049F593
:1010700021E02093E90021E8215059F03091E80067
:1010800035FD07C0EFE3F1E03197F1F700C0000054
:10109000F3CF2091E80025FF14C0EC0140E050E0C0
:1010A00068E070E00E94470C8091E8008E778093A2
:1010B000E80088E0FE01ACE4B3E001900D928A956F
:1010C000E1F7DF91CF910895CF93C0914A02C1110A
:1010D0000BC00E94DF1D643C79408105910520F022
:1010E00081E080934A02C1E08C2FCF910895FF9256
:1010F0000F931F93CF93DF93D82F0FB607FE83C0B4
:1011000080914D04843081F08091030190E001963C
:101110002091050130E0822393232091040130E0E7
:101120008217930709F0CDC00E946408811110C096
:101130008091030190E001962091050130E0822327
:1011400093232091040130E08217930709F0B9C07E
:101150000E94D31D8C01C091E900CF709091EC00EA
:10116000892F817090FD80E8C82B83E08093E9008F
:1011700085E0F82E8091EB0085FD42C08091EB0068
:1011800080FF3EC08091EE0087FF3AC0809104014D
:1011900090910301981709F457C09091E80095FFCA
:1011A0008EC0E0910101F0910201E80FF11D208154
:1011B0008F5F909105018923809304012093F100B2
:1011C0008091E80085FDE2CF8091E80080FFDECFCE
:1011D0008091E8008E778093E800F0920001D6CFEE
:1011E0008091030190E001962091050130E0822377
:1011F00093232091040130E08217930709F44CC037
:10120000CF70C093E90040910301842F90E00196D4
:101210002091050130E0822393232091040130E0E6
:101220008217930709F450C0E0910101F091020187
:10123000E40FF11DD083809103018F5F9091050130
:1012400089238093030140C08091E80085FF37C067
:10125000D093F10021E03091F3008091F20090E012
:10126000932B892B91F08091E80080FF0EC0809134
:10127000E80085FF03C01092F100F9CF8091E800EB
:101280008E778093E800F0920001222309F4A8CF22
:10129000CF70C093E90018C080910001882309F441
:1012A000AFCF0E94D31D9C018017910711F48901D3
:1012B00061CF90910001915090930001F8CF20E010
:1012C000CACF40910301B0CF80E0DF91CF911F9151
:1012D0000F91FF90089580914C04811104C00E94E9
:1012E000B30E0C94100F089510924C0408950895B5
:1012F00042E061EC81E00E94C00B42E061EC82E0E0
:101300000E94C00B46E361EC83E00C94C00B80911B
:101310004F04833009F453C030F4813071F08230CF
:1013200009F4BAC008958A3009F4A6C08B3009F4D4
:1013300078C0893009F0C8C020C080914E04813A3D
:1013400009F0C2C08091E800877F8093E800809117
:10135000520490915304892B21F468E08CE493E0CB
:1013600003C060E080E090E070E00E94940C809107
:10137000E8008B778093E800089580914E048132D5
:1013800009F0A2C08091520490915304892B09F076
:101390009BC08091E800877F8093E8008091E800FF
:1013A00082FD05C080914D048111F8CF8DC08091E0
:1013B000F100809354038091E8008B7781C0809185
:1013C0004E04813A09F080C08091520490915304F8
:1013D000892BA1F48091E800877F8093E8008091B9
:1013E000E80080FFFCCF809111018093F100809193
:1013F000E8008E778093E8000E94F50B80915204FC
:1014000090915304019709F05FC08091E800877FB5
:101410008093E8008091E80080FFFCCF809110016C
:101420004AC080914E04813209F04EC0809152042E
:1014300090915304892B69F48091E800877F809311
:10144000E8000E94F50B80915004809311010E94E6
:10145000931380915204909153040197A9F58091C0
:10146000E800877F8093E8000E94F50B809150048C
:10147000809310010C94931380914E04813221F5D6
:101480008091E800877F8093E8000E94F50B8091AF
:10149000510480935503089580914E04813AA1F43C
:1014A0008091E800877F8093E8008091E80080FFCA
:1014B000FCCF809155038093F1008091E8008E77F6
:1014C0008093E8000C94F50B089580915403809369
:1014D0004B02109254030E9494110C9493130C9499
:1014E000650A0E94601D80914B04882329F00E94A8
:1014F000891D81110C94AA0B08950E949D1D809155
:101500004B028093540308950C947D0A08950C9423
:10151000860A0C94860ACF9384B7877F84BF0FB660
:10152000F894A89580916000886180936000109283
:1015300060000FBE90E080E80FB6F89480936100E1
:10154000909361000FBE87E798E00E94321D86E00D
:1015500091E00E9417108AE993E00E9427060E94FA
:10156000890A0E94E9100E94B30E0E94100F78941D
:101570000E94EB1080914D04843029F00E94FC0FF2
:101580000E94860AF7CF0E9464088823B9F388E88E
:1015900093E00E9427060E94870A8AE793E00E9450
:1015A0002706C3E080914D04853019F40E94710A2A
:1015B000F9CF0E94491D0E94EF102091E400309164
:1015C000E50080914802909149022817390709F4F3
:1015D00068C08091E4009091E50090934902809367
:1015E00048020E946408882309F45BC080914D047E
:1015F000843009F056C08091E9008F702091EC0092
:10160000922F917020FD90E8892BC093E900909172
:10161000EB0090FF43C09091EE0097FF3FC0909188
:10162000040120910301291709F12091E80025FF09
:101630001DC0E0910101F0910201E90FF11D30811F
:101640009F5F209105019223909304013093F10054
:101650009091E80095FDE3CF9091E80090FFDFCFF7
:101660009091E8009E779093E800D9CF9091F30095
:101670002091F20030E0392B232B81F09091E8008B
:1016800090FF0CC09091E80095FF03C01092F1000C
:10169000F9CF9091E8009E779093E8008F70809347
:1016A000E9000E94FC0F7ECF292F3327233031051C
:1016B000C9F060F42130310581F02230310509F0A4
:1016C00041C084E590E02DEF33E040C02132310588
:1016D000E1F02232310531F135C082E190E021E5BF
:1016E00034E034C099278130910549F028F0029701
:1016F00049F5E3EBF3E005C0E9EFF3E002C0E9EE02
:10170000F3E0849190E09F0121C063307105D0F433
:10171000660F771FFB01ED5DFE4F2081318189E06F
:1017200090E014C06330710568F4FB01EE0FFF1FF9
:10173000E35EFE4F20813181FB01E65EFE4F80813A
:1017400090E004C080E090E020E030E0FA013183D6
:101750002083089580E189BD82E189BD09B400FE3E
:10176000FDCF8091D8008F7D8093D8008091E000DC
:1017700082608093E0008091E00081FDFCCF0895BD
:10178000982F973068F59093E900981739F0709189
:10179000EC002091ED005091F00003C0242F762F33
:1017A00050E021FD02C09F5FECCF3091EB003E7F07
:1017B0003093EB003091ED003D7F3093ED003091A0
:1017C000EB0031603093EB007093EC002093ED0060
:1017D0005093F0002091EE0027FDE5CF80E00895C2
:1017E0008F708093E90081E0089580914E0487FF17
:1017F00011C08091E80082FD05C080914D048111E7
:10180000F8CF11C08091E8008B770BC080914D0418
:10181000882349F08091E80080FFF8CF8091E800AC
:101820008E778093E80008952091E4003091E500E0
:1018300095E64091EC00842F817040FF23C0809199
:10184000E80080FD1DC080914D04882399F085300B
:1018500099F08091EB0085FD11C04091E40050911A
:10186000E5002417350729F3915011F09A01E1CFD3
:1018700084E0089582E0089583E0089581E008956A
:1018800080E008954091E80042FFDDCF0895CF92B7
:10189000DF92EF92FF920F931F93CF93DF93EC01B0
:1018A0008B017A010E94140C811135C0E114F104FE
:1018B00039F0F70180819181081B190BC80FD91FDE
:1018C000C12CD12C0115110529F18091E80085FD6D
:1018D00018C08091E8008E778093E8000E94FC0F8A
:1018E000E114F10449F0F70180819181C80ED91EFD
:1018F000D182C08285E00FC00E94140C882311F3AE
:101900000AC089918093F10001501109FFEFCF1AAD
:10191000DF0AD8CF80E0DF91CF911F910F91FF9028
:10192000EF90DF90CF9008952091540430915504AA
:101930002617370748F06115710539F42091E80042
:101940002E772093E80001C0B901FC0120E0611569
:10195000710579F180914D048823F1F18530F1F121
:101960008091E80083FD3CC08091E80082FD2EC09C
:101970008091E80080FFEBCF2091F3008091F2008E
:1019800090E0922B6115710551F08830910538F483
:1019900021912093F100615071090196F3CF21E06C
:1019A000089709F020E08091E8008E778093E800A6
:1019B000CECF2111CFCF0AC080914D04882361F092
:1019C000853061F08091E80083FD0AC08091E800D5
:1019D00082FFF2CF80E0089582E0089583E00895C9
:1019E00081E008952091540430915504261737075B
:1019F00048F06115710539F42091E8002E772093A5
:101A0000E80001C0B901FC0120E06115710591F108
:101A100080914D04882309F440C0853009F43FC00B
:101A20008091E80083FD3DC08091E80082FD2FC0D9
:101A30008091E80080FFE9CF2091F3008091F200CF
:101A400090E0922B6115710559F08830910540F4B2
:101A500024912093F1003196615071090196F2CFE3
:101A600021E0089709F020E08091E8008E778093CC
:101A7000E800CBCF2111CCCF0AC080914D04882340
:101A800061F0853061F08091E80083FD0AC08091AB
:101A9000E80082FFF2CF80E0089582E0089583E0BD
:101AA000089581E008951F93CF93DF93CDB7DEB7FC
:101AB000AA970FB6F894DEBF0FBECDBFEEE4F4E0F8
:101AC0008091F100819324E0E635F207C9F70E9486
:101AD00087098091E80083FF2EC180914E04909188
:101AE0004F04492F50E04A30510508F024C1FA0153
:101AF000EA5AFF4F0C944426803821F0823809F0CE
:101B00001AC108C080914A0490914B04992389F02E
:101B100082600FC0809152048F70873008F00BC133
:101B20008093E9008091EB0085FB882780F9109273
:101B3000E9009091E800977F9093E8008093F1008E
:101B40001092F100D1C0282F2D7F09F0F4C0882316
:101B500019F0823061F0EFC080915004813009F0BB
:101B6000EAC0933009F080E080934B042EC080914E
:101B7000500481112AC0809152048F702FEF280FDA
:101B8000263008F0D8C08093E9002091EB0020FFB8
:101B90001CC0933021F48091EB00806214C09091BE
:101BA000EB0090619093EB0021E030E0A90102C0CE
:101BB000440F551F8A95E2F74093EA001092EA001D
:101BC0008091EB0088608093EB001092E900809197
:101BD000E800877F8093E8000E94F50BACC081117C
:101BE000AAC0109150041F778091E3008078812B68
:101BF0008093E3008091E800877F8093E8000E9453
:101C0000F50B8091E80080FFFCCF8091E3008068B5
:101C10008093E300111102C082E001C083E0809351
:101C20004D0489C08058823008F085C080915004EE
:101C3000909151048C3D53E0950779F583E08A83B8
:101C40008AE289834FB7F894DE01139620E03EE0E4
:101C500051E2E32FF0E050935700E49120FF03C0DE
:101C6000E295EF703F5FEF708E2F90E0EA3010F05A
:101C7000C79601C0C0968D939D932F5F243149F77D
:101C80004FBF8091E800877F8093E8006AE270E0B0
:101C9000CE0101960E94940C16C06091520470917E
:101CA0005304AE014F5F5F4F0E94540BBC01892B60
:101CB00009F441C09091E800977F9093E8008981F2
:101CC0009A810E94F20C8091E8008B778093E80063
:101CD00032C0803881F58091E800877F8093E800EA
:101CE000809149048093F1008091E8008E7772CF53
:101CF000811121C08091500490915104992702973D
:101D0000D4F48091E800877F8093E80080915004AC
:101D1000809349040E94F50B80914904811106C00B
:101D20008091E30087FD02C081E001C084E08093E0
:101D30004D040E9478098091E80083FF0AC08091D9
:101D4000E800877F8093E8008091EB0080628093B9
:101D5000EB00AA960FB6F894DEBF0FBECDBFDF91A1
:101D6000CF911F9108950E94210F0E94290FE0EE4C
:101D7000F0E0808181608083E8EDF0E080818F7702
:101D8000808319BCA7EDB0E08C918E7F8C9380810D
:101D90008F7E808310924C0408950F931F93CF93EE
:101DA000DF930E94210F0E94290FC8EDD0E08881A7
:101DB0008F77888388818068888388818F7D8883F6
:101DC00019BC10924D041092490410924B041092C9
:101DD0004A0400EE10E0F80180818B7F80838881C7
:101DE0008160888342E060E080E00E94C00BE1EE09
:101DF000F0E080818E7F8083E2EEF0E08081816080
:101E00008083808188608083F80180818E7F8083D9
:101E1000888180618883DF91CF911F910F91089510
:101E2000E8EDF0E080818F7E8083E7EDF0E0808157
:101E30008160808384E082BF81E080934C040C94B5
:101E4000CD0EE8EDF0E080818E7F80831092E2007D
:101E500008951092DA001092E10008951F920F92F7
:101E60000FB60F9211242F933F934F935F936F936D
:101E70007F938F939F93AF93BF93EF93FF93809143
:101E8000E10082FF0BC08091E20082FF07C08091D9
:101E9000E1008B7F8093E1000E94FB0F8091DA00CC
:101EA00080FF1FC08091D80080FF1BC08091DA00A6
:101EB0008E7F8093DA008091D90080FF0DC080E191
:101EC00089BD82E189BD09B400FEFDCF81E0809328
:101ED0004D040E946B0905C019BC10924D040E946C
:101EE00074098091E10080FF19C08091E20080FFB9
:101EF00015C08091E2008E7F8093E2008091E20025
:101F000080618093E2008091D80080628093D80045
:101F100019BC85E080934D040E946F0A8091E10016
:101F200084FF30C08091E20084FF2CC080E189BD35
:101F300082E189BD09B400FEFDCF8091D8008F7D7C
:101F40008093D8008091E1008F7E8093E1008091A2
:101F5000E2008F7E8093E2008091E20081608093B6
:101F6000E20080914904882311F084E007C0809149
:101F7000E30087FD02C081E001C083E080934D044F
:101F80000E94840A8091E10083FF24C08091E200D6
:101F900083FF20C08091E100877F8093E10082E091
:101FA00080934D04109249048091E1008E7F8093CC
:101FB000E1008091E2008E7F8093E2008091E20058
:101FC00080618093E20042E060E080E00E94C00B0C
:101FD0000E947709FF91EF91BF91AF919F918F91EF
:101FE0007F916F915F914F913F912F910F900FBE15
:101FF0000F901F9018950895CF9380914D048823DA
:10200000A1F0C091E900CF709091EC00892F817010
:1020100090FD80E8C82B1092E9008091E80083FDD4
:102020000E94530DCF70C093E900CF910895909313
:102030005B0380935A030895E0915A03F0915B0388
:10204000309721F00190F081E02D099480E008950F
:10205000EF92FF920F931F93CF93DF93E0915A0378
:10206000F0915B033097B1F18C010280F381E02D98
:1020700009958091380482FF2DC080FF04C08AE654
:1020800095E00E942706E80118E084E6E82E85E046
:10209000F82E8091380480FF0BC088811F928F93A7
:1020A000FF92EF920E94C0060F900F900F900F903A
:1020B000115021961111EDCF8091380480FF0AC094
:1020C00082E695E0DF91CF911F910F91FF90EF9005
:1020D0000C942706DF91CF911F910F91FF90EF9005
:1020E00008951F93CF93DF9320915A0330915B03A0
:1020F000232B89F0EC0118810E9428219881892BDB
:102100008883E0915A03F0915B030480F581E02D10
:10211000CE0109951883DF91CF911F910895CF9338
:10212000DF9320915803309159032817390709F19B
:102130009093590380935803E0915A03F0915B0305
:102140003097B9F0EC010680F781E02D0995809178
:10215000380482FF0EC080FF0CC0DF93CF9384E56C
:1021600095E09F938F930E94C0060F900F900F9061
:102170000F90DF91CF910895CF93DF932091560375
:10218000309157032817390709F19093570380932B
:102190005603E0915A03F0915B033097B9F0EC01DC
:1021A0000084F185E02D09958091380482FF0EC0EE
:1021B00080FF0CC0DF93CF9384E495E09F938F93CF
:1021C0000E94C0060F900F900F900F90DF91CF915B
:1021D00008950C9495110E94CA1D0C94C906BF92D3
:1021E000CF92DF92EF92FF920F931F93CF93DF93E3
:1021F00000D000D01F92CDB7DEB70E94DB060DE500
:1022000013E0F12C8F2D0E943607B82EF801C08004
:10221000C82639F4F3940F5F1F4FF0E1FF12F2CF9D
:1022200030C08091380481FD0E94AA11D12CEE2487
:10223000E3948C2D8E21F9F0D982FA8291E08B2DD6
:102240008E2109F490E09B830E94D31D8160782F3A
:102250009D838C8349815A816B818D810E94E0111D
:1022600049815A816B817C818D810E944B1DF801CF
:1022700080818E258083D394EE0CF8E0DF12D9CFD5
:10228000C9CF8FEF89838A831B820E94D31D81600F
:10229000782F9D838C8349815A816B818D810E9427
:1022A000E0110E944A1D0E9477200E941C1090910C
:1022B0005C03891741F10E941C1080935C0390918C
:1022C000380492FF0EC090FF0CC01F928F9385E7D9
:1022D00095E09F938F930E94C0060F900F900F90F0
:1022E0000F9080915C030F900F900F900F900F90C4
:1022F000DF91CF911F910F91FF90EF90DF90CF90E2
:10230000BF900C945C1D0F900F900F900F900F904A
:10231000DF91CF911F910F91FF90EF90DF90CF90C1
:10232000BF9008950C943C0708950895CF93C62F4D
:102330000E94360721E030E002C0220F331FCA9509
:10234000E2F790E02823392381E0232B09F480E091
:10235000CF910895EF92FF920F931F93CF93DF9346
:102360008BE895E00E942706C0E0D0E089E2E82EE5
:1023700081E0F82E00E815E08C2F0E9436070E94BD
:10238000371DFF92EF921F928F93DF93CF931F938E
:102390000F930E94C00621968DB79EB708960FB680
:1023A000F8949EBF0FBE8DBFC031D10529F7DF91D4
:1023B000CF911F910F91FF90EF9008950895089588
:1023C000CF93DF93CDB7DEB72B970FB6F894DEBF70
:1023D0000FBECDBF942F4F83252F588769877A87EB
:1023E0008B874A855B85452B31F02F3F31F481E0A7
:1023F0009F3F19F403C081E001C080E080FD07C069
:102400004F81588569857A858B850E944B1DDE0139
:10241000119686E0FD0111928A95E9F785E0FE01AB
:10242000379601900D928A95E1F749815A816B8127
:102430007C818D819E810E94AC192B960FB6F894F9
:10244000DEBF0FBECDBFDF91CF910895CF93DF9355
:10245000882309F4EEC0C82F8EE78C0F833018F55F
:10246000C23829F0C33831F0C4E0D7E405C0C2E077
:10247000D9E302C0C1E0D3E50E941C108C2309F00F
:10248000D8C08D2F0E94941C0E940C1D2FEF81EE4E
:1024900094E0215080409040E1F700C000008D2F73
:1024A0000E94B11C0CC08CEF8C0F813A60F48C2F11
:1024B0000E94A4238111BDC08C2F0E94941CDF9127
:1024C000CF910C940C1D80E28C0F883048F4C770BB
:1024D00081E001C0880FCA95EAF70E94D21CEFCFB5
:1024E0008BE58C0F833080F4C53A29F0C63A31F081
:1024F00083E890E005C081E890E002C082E890E0C7
:10250000DF91CF910C948F1088E58C0F873108F004
:1025100090C0C83A09F445C0C93A09F445C0CA3A5E
:1025200009F445C0CB3A09F445C0CC3A09F445C09A
:10253000CD3A09F445C0CE3A09F445C0CF3A09F482
:1025400045C0C13B09F445C0C03B09F445C0C23B8E
:1025500009F445C0C33B09F445C0C43B09F445C078
:10256000C53B09F445C0C63B09F445C0C73B09F467
:1025700045C0C83B09F445C0C93B09F445C0CA3B46
:1025800009F445C0CB3B09F445C0CC3B09F445C038
:10259000CD3B09F445C0CE3B09F445C080E090E056
:1025A00044C082EE90E041C089EE90E03EC08AEEE9
:1025B00090E03BC085EB90E038C086EB90E035C002
:1025C00083EB90E032C084EB90E02FC087EB90E08B
:1025D0002CC08CEC90E029C08DEC90E026C083E804
:1025E00091E023C08AE891E020C082E991E01DC01B
:1025F00084E991E01AC081E292E017C083E292E0A0
:1026000014C084E292E011C085E292E00EC086E23E
:1026100092E00BC087E292E008C08AE292E005C037
:102620008FE690E002C080E790E0DF91CF910C94BC
:10263000BC10DF91CF910895CF93DF93882309F4E5
:102640004FC09EE7980F933000F5823829F0833809
:1026500031F0C4E0D7E405C0C2E0D9E302C0C1E074
:10266000D3E50E941C108C23D9F18D2F0E94941C5D
:102670000E940C1D2FEF81EE94E02150804090408D
:10268000E1F700C000008D2F04C09CEF980F913A35
:1026900018F40E94B11C0DC090E2980F983068F4B5
:1026A000877091E001C0990F8A95EAF7892F0E94FF
:1026B000D81CDF91CF910C940C1D9BE5980F9330A3
:1026C00030F480E090E0DF91CF910C948F10885A25
:1026D000873130F480E090E0DF91CF910C94BC1012
:1026E000DF91CF910895882321F00E94D21C0C9491
:1026F0000C1D0895882321F00E94D81C0C940C1DF9
:1027000008950E94F21C0E94C11C0E940C1D0E9490
:102710001C210E94EA1F80E090E00E948F1080E060
:1027200090E00C94BC100E94E21C0C948113CF9298
:10273000DF92EF92FF920F931F93CF93DF9300D01E
:1027400000D01F92CDB7DEB76C010E945E1D8111D3
:1027500018C385E0F601DE01119601900D928A956D
:10276000E1F7F60140815181238134812115310542
:1027700031F05F3F31F481E04F3F19F403C081E055
:1027800001C080E080FDFDC2F601F280E580E294A8
:102790008FE0E82249835A83FB82722F3D832C838A
:1027A0006F2D8D810E94101C8C010E940F1C0E94B5
:1027B000FF1AE12FE295EF708E2F90E0FC01E05AB6
:1027C000FF4F0C944426812F807F1F70882311F0C7
:1027D0001295107FFF20B9F0112329F0812F0E945C
:1027E000E51C0E940C1D802F0F900F900F900F90F2
:1027F0000F90DF91CF911F910F91FF90EF90DF909D
:10280000CF900C942612802F0E941C13112309F4E0
:10281000B8C2812F0E94EB1C0F900F900F900F9069
:102820000F90DF91CF911F910F91FF90EF90DF906C
:10283000CF900C940C1D812F807F1F70803211F07F
:102840001295107F002319F0013009F12BC0FF20F1
:10285000A9F0EE2059F1F1E0812FEF1228C00F907E
:102860000F900F900F900F90DF91CF911F910F91CC
:10287000FF90EF90DF90CF900C94F51CEE2021F0AC
:1028800021E0E21609F47DC20E94F81C4DC0FF2031
:10289000E9F085E08E1508F474C20E94CF1C8123F4
:1028A00029F042C0FF20F1F1E11015C0812F0F90F7
:1028B0000F900F900F900F90DF91CF911F910F917C
:1028C000FF90EF90DF90CF900C94731394E09E15DF
:1028D00008F457C229C0F601858180FF13C08F70AC
:1028E0008583E4CF003F09F489C108F055C180E435
:1028F000800F803208F459C1FF2009F4EAC1EE20AC
:1029000009F49AC1802F0E942612093309F0DAC116
:10291000FFEF21EE84E0F15020408040E1F700C05D
:1029200000002FC2E110D7C1812F59C1812F869598
:102930008695837019F08130B9F023C2FF2019F019
:10294000C801937002C080E090E00F900F900F904C
:102950000F900F90DF91CF911F910F91FF90EF900B
:10296000DF90CF900C948F10FF2019F0C801937066
:1029700002C080E090E00F900F900F900F900F90AA
:10298000DF91CF911F910F91FF90EF90DF90CF904B
:102990000C94BC10802FFF2019F00E94FD1E02C075
:1029A0000E94651F0F900F900F900F900F90DF9176
:1029B000CF911F910F91FF90EF90DF90CF900C94EB
:1029C000EA1F812F837009F070C0F110DAC1202F47
:1029D000229526952770220F220F602F6F70862F69
:1029E00090E0A0E0B0E06C017D01022E04C0CC0CB0
:1029F000DD1CEE1CFF1C0A94D2F704FF12C08FE00E
:102A000090E0A0E0B0E004C0880F991FAA1FBB1F90
:102A10002A95D2F7BC01CD0160957095809590956F
:102A200003C060E070E0CB0116951695137012306C
:102A3000B1F040F56C297D298E299F29113031F1A3
:102A40000F900F900F900F900F90DF91CF911F91EB
:102A50000F91FF90EF90DF90CF900C94241B6C2986
:102A60007D298E299F290F900F900F900F900F9026
:102A7000DF91CF911F910F91FF90EF90DF90CF905A
:102A80000C943E1B0E94241BC701B6010F900F90AF
:102A90000F900F900F90DF91CF911F910F91FF90AA
:102AA000EF90DF90CF900C940A1BFF2019F0812F3C
:102AB000817001C08695882309F463C1202F229577
:102AC00026952770220F220F602F6F70862F90E0BF
:102AD000A0E0B0E06C017D01022E04C0CC0CDD1C36
:102AE000EE1CFF1C0A94D2F704FF12C08FE090E0A6
:102AF000A0E0B0E004C0880F991FAA1FBB1F2A9551
:102B0000D2F7BC01CD01609570958095909503C07A
:102B100060E070E0CB011695169513701230B1F09D
:102B200040F56C297D298E299F29113031F10F90B4
:102B30000F900F900F900F90DF91CF911F910F91F9
:102B4000FF90EF90DF90CF900C94EB1B6C297D29C8
:102B50008E299F290F900F900F900F900F90DF916B
:102B6000CF911F910F91FF90EF90DF90CF900C9439
:102B7000FD1B0E94EB1BC701B6010F900F900F9039
:102B80000F900F90DF91CF911F910F91FF90EF90D9
:102B9000DF90CF900C94D91B023F09F45EC008F47B
:102BA00049C0033F09F46CC0A7CE902F9071E92E65
:102BB000812F8F71FF2051F00E94721B802FEE2019
:102BC00019F08295807F73CE8F7071CE0E94931B17
:102BD000802FEE2019F08295807F01C08F700F90BA
:102BE0000F900F900F900F90DF91CF911F910F9149
:102BF000FF90EF90DF90CF900C947A13FF20A9F014
:102C0000E4E0EE1508F4BDC0812F8F710F900F9096
:102C10000F900F900F90DF91CF911F910F91FF9028
:102C2000EF90DF90CF900C94B81BF5E0FE1508F400
:102C3000A8C0EACFFF2099F0812F8F710F900F90DD
:102C40000F900F900F90DF91CF911F910F91FF90F8
:102C5000EF90DF90CF900C94721BFF2069F3812FCF
:102C60008F710F900F900F900F900F90DF91CF9179
:102C70001F910F91FF90EF90DF90CF900C94931BDA
:102C8000FF2089F0812F8F710F900F900F900F9080
:102C90000F90DF91CF911F910F91FF90EF90DF90F8
:102CA000CF900C945D1B0F900F900F900F900F9092
:102CB000DF91CF911F910F91FF90EF90DF90CF9018
:102CC0000C94581B033509F423CE073409F059C07E
:102CD0001FCEEE2021F2802F0F900F900F900F90BB
:102CE0000F90DF91CF911F910F91FF90EF90DF90A8
:102CF000CF900C941C13412F4F70602FC6010E947F
:102D0000771E0F900F900F900F900F90DF91CF9143
:102D10001F910F91FF90EF90DF90CF900C945A1A73
:102D200001112FC0FF2069F10E9493132FEF80E75C
:102D300092E0215080409040E1F700C000000F90E9
:102D40000F900F900F900F90DF91CF911F910F91E7
:102D5000FF90EF90DF90CF900C94201E412F4F708A
:102D6000602FC6010F900F900F900F900F90DF9182
:102D7000CF911F910F91FF90EF90DF90CF900C9427
:102D80007A1E0F900F900F900F900F90DF91CF91C0
:102D90001F910F91FF90EF90DF90CF9008951F93B8
:102DA000CF93DF9300D000D01F92CDB7DEB7942F22
:102DB0004983252F5A836B837C838D834C815D816E
:102DC000452B31F02F3F31F481E09F3F19F403C0D0
:102DD00081E001C080E0182F117080FD24C049817E
:102DE0005A816B817C818D810E94101C292F229534
:102DF0002F702C3030F42A3048F42250223068F002
:102E000013C02C3061F02F3051F00EC0803C28F000
:102E1000803E50F0815F833038F011E005C093FBB5
:102E2000112710F901C010E0812F0F900F900F9023
:102E30000F900F90DF91CF911F910895CF93DF9363
:102E400000D000D01F92CDB7DEB70F900F900F903B
:102E50000F900F90DF91CF910895CF93DF9300D023
:102E600000D000D0CDB7DEB726960FB6F894DEBFFF
:102E70000FBECDBFDF91CF9108951F93CF93DF9306
:102E8000C0916D0316E080916E03C81799F0D0E0F1
:102E90001C9FF0011D9FF00D1124E159FC4F408152
:102EA000518162817381848195810E942D172196C1
:102EB000C770E9CFDF91CF911F91089540919F0393
:102EC0005091A0036091A1037091A2038091A3038C
:102ED0009091A4030C942D170F931F93CF93DF931E
:102EE0008091A40382958F7009F05DC08091A10349
:102EF000882309F458C080916D0310916E0360918E
:102F00009F037091A003C091A203D091A30391E00D
:102F10006F3F09F090E0292F06E0811709F443C0C4
:102F2000209721F07F3F21F030E003C031E001C065
:102F3000322F90E030FD34C0089FF001099FF00D62
:102F40001124DF01A159BC4F11963C911197371301
:102F500027C03C91361324C012963C911297311130
:102F60001FC013964D915C9114974C1B5D0B483C10
:102F70005105B0F48091A4038F7080618093A40305
:102F8000EC58FC4F80818F70806180838FE993E0E3
:102F90000E949713DF91CF911F910F910C943D17D1
:102FA00001968770BACFDF91CF911F910F9108954D
:102FB0009F92AF92BF92CF92DF92EF92FF920F93C8
:102FC0001F93CF93DF93CDB7DEB761970FB6F89419
:102FD000DEBF0FBECDBF8C0185E0F801DE011D967E
:102FE00001900D928A95E1F7F80140815181F280BC
:102FF000C380D48090919F036091A0032091A2038D
:103000003091A3032115310531F06F3F31F481E098
:103010009F3F19F403C081E001C080E0F82FF170F8
:103020009F2E80FD52C18FE9A82E83E0B82EE0903C
:10303000A103F601E21BF30BEE2009F4E8C0809136
:10304000A403E83CF10508F0A4C0282F207F09F074
:1030500053C0561313C0491311C0EF2CF1100EC00A
:103060008F7080618093A4030E945E17C5010E9447
:1030700097138091A403F80185835BC1C114D10427
:1030800031F05F3F31F481E04F3F19F403C081E03C
:1030900001C080E080FD03C081E08F2502C080E098
:1030A00090E0F82FF170EF2E80FF1CC080916D032F
:1030B00020916E0336E0821709F418C190E0389F22
:1030C000F001399FF00D1124E159FC4F6181561335
:1030D00006C06081461303C06281F61203C00196E8
:1030E0008770E9CFEF2CFF2009F423C18091A4035E
:1030F00081608093A40362C0561306C0491304C0C4
:10310000F11002C0F801A7C04D875E87FF867C2DB5
:10311000D98AC88A6F2D89890E94CF16882399F190
:10312000FF2089F12091A403822F82958F7090E077
:10313000029774F080919F039091A00398878F83EA
:103140001986DB86CA862C87CE0107960E949713C4
:1031500086E0F801AFE9B3E001900D928A95E1F7BE
:103160000E946C170E945E1711C0561749F14D87D7
:103170005E87FF867C2DD98AC88A6F2D89890E9437
:10318000CF1681112CC0C8010E949713EE24E3943E
:10319000D0C0282F207F49F77C2DD98AC88A6F2D6F
:1031A00089890E941E178FE993E00E94971386E099
:1031B000F50111928A95E9F70E945E17E12CB9C0DA
:1031C0004913D5CFF110D3CFF8018583C8010E94F0
:1031D000971386E0F50111928A95E9F7AAC0FF20BE
:1031E00091F22091A403822F82958F7090E0029734
:1031F0000CF4AECF80919F039091A0039A838983B2
:103200001B82DD82CC822E83CE0101969FCFE83CCB
:10321000F10508F04BC0EF2CFF2009F4B4CF561392
:1032200030C049132EC02091A40320FD21C0822F5D
:1032300082958F70482F50E041155105C9F0F80173
:1032400025834F30510541F08F5F982F9295907FE5
:10325000822F8F70892B8583C8010E94971386E087
:10326000F801AFE9B3E001900D928A95E1F72AC029
:1032700086E0F801AFE9B3E001900D928A95E1F79D
:1032800058C04D875E87FF867C2DD98AC88A6F2DEE
:1032900089890E94CF1681115BCF8091A403816040
:1032A0008093A403C8010E94971343C07C2DD98A40
:1032B000C88A6F2D89890E941E1786E0F501119238
:1032C0008A95E9F70E945E1734C0FF2009F45BCFAE
:1032D0004D875E87FF867C2DD98AC88A6F2D8989A4
:1032E0000E94CF16882309F44ECF32CF7C2DD98A85
:1032F000C88A6F2D89890E94101C292F22952F7052
:10330000223028F49F7039F0811105C00BC02430A1
:1033100028F49F7049F4805E883020F0C8010E9434
:1033200097139E2CE92C05C0F8019581907F99F7A1
:10333000F9CF8E2D61960FB6F894DEBF0FBECDBFCC
:10334000DF91CF911F910F91FF90EF90DF90CF9081
:10335000BF90AF909F9008951F93CF93DF93CDB709
:10336000DEB72C970FB6F894DEBF0FBECDBF4F83EC
:10337000588769877A878B879C87CE0107960E943A
:10338000D8178823D1F09F8188852A853B85232BF8
:1033900031F08F3F31F481E09F3F19F403C081E0A9
:1033A00001C080E080FD47C04F81588569857A85DE
:1033B0008B859C850E942D173EC086E0FE013796C6
:1033C000DE01119601900D928A95E1F7FF81E88563
:1033D0006A857B856115710531F0EF3F31F481E03D
:1033E000FF3F19F403C081E001C080E080FD23C0ED
:1033F00020916E0330E0C9010196877099274091B2
:103400006D0350E084179507F1F1F983EA837D831A
:103410006C8396E0929FD001939FB00D1124A15927
:10342000BC4FFE01319601900D929A95E1F7809381
:103430006E030E943D1716E080916D0390916E031C
:10344000891771F1189FC001112481599C4F0E9466
:10345000D817882329F1E0916D031E9FF0011124F4
:10346000E159FC4F40815181628173818481958152
:103470000E942D1780916D0390E001968770992727
:1034800080936D03D9CF0E94931310926E03109214
:103490006D03EFE9F3E086E0DF011D928A95E9F71D
:1034A0002C960FB6F894DEBF0FBECDBFDF91CF9143
:1034B0001F910895DF92EF92FF920F931F93CF9386
:1034C000DF93FC01892B09F488C0E12CF12CDD2469
:1034D000D394EF0121968491853709F460C058F4A4
:1034E000843708F04EC0843008F068C08130D1F0D5
:1034F000823071F172C0883709F45BC050F48637AE
:1035000009F453C0873709F068C08E2D0E94DF1C74
:1035100052C09CE7980F903708F05FC08F770E94E9
:103520001C134EC08F010E5F1F4FFE01849190E26D
:10353000980F983050F48770FD2D01C0FF0F8A95C9
:10354000EAF78F2F0E94E51C15C00E94261214C0B6
:103550008F010E5F1F4FFE01849190E2980F98300B
:1035600068F48770FD2D01C0FF0F8A95EAF78F2F51
:103570000E94EB1C0E940C1DE80122C00E941C133B
:10358000FBCFCF010296FE01C491CC2361F0EFE99D
:10359000FFE03197F1F700C00000C150F6CFCF0136
:1035A0000296FE01F490EC010BC00E94CF1CE82EA5
:1035B00007C00E94E21C0E940C1D02C00E9426123D
:1035C0008F2D882341F0EFE9FFE03197F1F700C03C
:1035D00000008150F6CFFE017CCFDF91CF911F918B
:1035E0000F91FF90EF90DF90089560932504709302
:1035F000260480932704909328040C945B1D08955F
:103600006093290470932A0480932B0490932C04D4
:103610000C945A1D0F931F930091290410912A04B2
:1036200020912B0430912C04602B712B822B932B37
:103630006093290470932A0480932B0490932C04A4
:103640001F910F910C945A1D0F931F930091290401
:1036500010912A0420912B0430912C0460237123B3
:10366000822393236093290470932A0480932B046C
:1036700090932C041F910F910C945A1D0F931F933C
:103680000091290410912A0420912B0430912C04DC
:1036900060277127822793276093290470932A0457
:1036A00080932B0490932C041F910F910C945A1D1E
:1036B00060E070E0CB010C94F51A0F931F9341E08A
:1036C00050E060E070E08A019B0104C0000F111F10
:1036D000221F331F8A95D2F7C901B8011F910F919C
:1036E0000C94F51A0F931F9341E050E060E070E0F6
:1036F00004C0440F551F661F771F8A95D2F780912B
:10370000250490912604A0912704B09128048A01F1
:103710009B01082B192B2A2B3B2BC901B8011F91A8
:103720000F910C94F51A0F931F9341E050E060E065
:1037300070E004C0440F551F661F771F8A95D2F7AB
:103740004095509560957095809125049091260440
:10375000A0912704B09128048A019B010823192312
:103760002A233B23C901B8011F910F910C94F51A2C
:103770000F931F9341E050E060E070E004C0440FFD
:10378000551F661F771F8A95D2F780912504909167
:103790002604A0912704B09128048A019B010827E0
:1037A00019272A273B27C901B8011F910F910C94B3
:1037B000F51A0F931F930091250410912604209170
:1037C000270430912804602B712B822B932B1F919F
:1037D0000F910C94F51A0F931F93009125041091EB
:1037E000260420912704309128046023712382232A
:1037F00093231F910F910C94F51A0F931F9300912F
:103800002504109126042091270430912804602774
:103810007127822793271F910F910C94F51A089511
:103820008F929F92AF92BF92DF92EF92FF920F938F
:103830001F93CF93DF9300D000D01F92CDB7DEB798
:103840006B837C838D838A018C819D81892B31F0F0
:103850001F3F31F481E04F3F19F403C081E001C004
:1038600080E080FF03C080E090E04DC08B81882322
:10387000D1F18090250490902604A0902704B09068
:1038800028048091290490912A04A0912B04B091DE
:103890002C04882A992AAA2ABB2A8FE1E82EF12C27
:1038A000D501C4010E2C04C0B695A79597958795B0
:1038B0000A94D2F780FD06C081E0E81AF10880F78B
:1038C000D12C07C0DE2CB8018E2D0E944F1E01970F
:1038D00099F388E0189FF0011124EB55FC4FE00F9D
:1038E000F11DD08209C088E0189FF0011124EB552A
:1038F000FC4FE00FF11DD08009831A8369817A8122
:103900008D2D0E944F1E0F900F900F900F900F90D3
:10391000DF91CF911F910F91FF90EF90DF90BF90BB
:10392000AF909F908F9008952091120130911301D4
:10393000F90132969FEF40E05191851789F09F3F42
:1039400019F4511101C0942F4F5F4630A9F79F3FE2
:1039500039F0F901E90FF11D97FDFA958283089579
:103960000895E0911201F09113019F012A5F3F4FEA
:103970009281891301C012823196E217F307C1F7D1
:10398000089581E090E0E0911201F0911301E80FB9
:10399000F91F1082019688309105A9F7089580914A
:1039A0003704089590913704892B80933704089544
:1039B00080959091370489238093370408958093EC
:1039C0003704089510923704089590913604892B96
:1039D00080933604089580959091360489238093CE
:1039E0003604089510923604089580932D040895A6
:1039F00010922D0408958091120190911301FC0101
:103A000031969C01285F3F4F80E0919191118F5F2B
:103A1000E217F307D1F70895E0911201F091130135
:103A2000809137048083E0911201F091130190811D
:103A300080913604892B808380912D04882361F046
:103A4000E0911201F09113019081892B80830E94F3
:103A5000FB1C811110922D04809112019091130191
:103A60000C94281090933501809334010895829529
:103A7000982F937344E0949F900111248C7C869539
:103A80008695282B822F8575880F2A7A2695822B7A
:103A9000089508950895CF93DF9300D000D01F922A
:103AA000CDB7DEB70F900F900F900F900F90DF9172
:103AB000CF910895089508950C94921180E008958F
:103AC00080914D04843021F11092390420E488E182
:103AD00090E00FB6F894A895809360000FBE2093F5
:103AE000600083B7817F846083BF83B7816083BFB9
:103AF0007894889583B78E7F83BF0FB6F894A89586
:103B000080916000886180936000109260000FBE19
:103B10000895CF930E94DE110E94DB060E94DF1100
:103B2000C0E08C2F0E943607811104C0CF5FC031E6
:103B3000C1F701C081E0CF9108950E9494110C94C7
:103B400093131F920F920FB60F9211248F939F938E
:103B5000AF93BF9380913904811113C080913A04CF
:103B600090913B04A0913C04B0913D044196A11D6D
:103B7000B11D80933A0490933B04A0933C04B0930E
:103B80003D04BF91AF919F918F910F900FBE0F9009
:103B90001F90189582E084BD93E095BD9AEF97BD84
:103BA00080936E0008952FB7F89480913A04909115
:103BB0003B04A0913C04B0913D042FBF08952FB762
:103BC000F89460913A0470913B0480913C04909188
:103BD0003D042FBF08959C014FB7F89480913A049B
:103BE00090913B04A0913C04B0913D044FBF821BD7
:103BF000930B089578941F920F920FB60F92112491
:103C00008F939F93AF93BF9380913A0490913B041D
:103C1000A0913C04B0913D040196A11DB11D80937B
:103C20003A0490933B04A0933C04B0933D04BF91AD
:103C3000AF919F918F910F900FBE0F901F9018958D
:103C40000E94B30EF89487E797E79093010880935A
:103C5000000887E090EBDC018093560490935704B2
:103C6000A0935804B09359049CE088E10FB6F894EF
:103C7000A895809360000FBE90936000FFCFE82F5F
:103C8000F0E088E0989FE00DF11D1124E052FD4F17
:103C90008491982F92959F708F7097700895CF930D
:103CA000C82FCB010E943F1E40E1949F9001112438
:103CB000282B203831051CF080E090E016C097706A
:103CC000E92FF0E098E0C99FE00DF11D112494E088
:103CD000EE0FFF1F9A95E1F78F70E80FF11DEE0FC1
:103CE000FF1FE052FF4F85919491CF91089580E09E
:103CF00090E0089508958091400480FF0BC060918A
:103D0000170185E0689FB001112475956795759539
:103D100067952BC081FF09C06091170185E0689FFE
:103D2000B00111247595679520C082FF07C060918E
:103D3000170185E0689FB001112417C090914104DC
:103D40009923D1F060911601961788F720911701F9
:103D500085E0289F90011124929FA001939F500D10
:103D6000112470E0CA010E9430266038710540F4C9
:103D70006115710519F406C065E070E0862F08959D
:103D80008FE7089581E008958091400480FF08C086
:103D90006091150170E0759567957595679521C0DF
:103DA00081FF06C06091150170E07595679519C097
:103DB00082FF04C06091150170E010C09091410431
:103DC000992399F0609114019617A0F7809115013D
:103DD000899FC001112470E00E943026603871056F
:103DE00040F46115710519F406C061E070E0862F9A
:103DF00008958FE7089581E00895803F21F40E949F
:103E00007B1E819504C0813F29F40E947B1E809314
:103E100044040895823F21F40E947B1E819504C0D2
:103E2000833F29F40E947B1E809343040895893FB9
:103E300019F40E94C41E05C08A3F31F40E94C41EBA
:103E400081958093450408958B3F21F40E94C41E00
:103E5000819504C08C3F29F40E94C41E80934604BF
:103E60000895843F21F480914204816017C0853F0A
:103E700021F480914204826011C0863F21F4809138
:103E8000420484600BC0873F21F480914204886023
:103E900005C0883F31F480914204806180934204E0
:103EA00008958D3F21F48091400481600BC08E3FC6
:103EB00021F480914004826005C08F3F29F48091F5
:103EC00040048460809340040895803F39F48091D9
:103ED000440487FF6CC01092440469C0813F29F4F8
:103EE000809144041816BCF362C090914304823F51
:103EF00029F497FF5CC01092430459C0833F19F422
:103F00001916CCF354C0893F41F48091450418162A
:103F10000CF04DC0109245044AC08A3F29F48091AC
:103F2000450487FF44C0F6CF8B3F39F480914604A7
:103F300087FF3DC0109246043AC08C3F29F480911F
:103F400046041816BCF333C0843F21F48091420428
:103F50008E7F17C0853F21F4809142048D7F11C070
:103F6000863F21F4809142048B7F0BC0873F21F470
:103F700080914204877F05C0883F31F480914204DC
:103F80008F7E8093420413C08D3F21F480914004C2
:103F90008E7F0BC08E3F21F4809140048D7F05C041
:103FA0008F3F29F4809140048B7F8093400480915F
:103FB000430481110EC08091440481110AC0809194
:103FC0004504811106C080914604811102C01092FF
:103FD000410408958091380483FF7EC08FEB95E003
:103FE0000E942706809142041F928F938AEB95E0EE
:103FF0009F938F930E94C00688EB95E00E9427064E
:1040000080914304282F082E000C330B3F938F938D
:1040100085EB95E09F938F930E94C00683EB95E01C
:104020000E94270680914404282F082E000C330B91
:104030003F938F9380EB95E09F938F930E94C006F0
:104040008EEA95E00E94270680914504282F082ECD
:10405000000C330B3F938F938BEA95E09F938F93E4
:104060000E94C00689EA95E00E94270680914604D6
:10407000282F082E000C330B3F938F9386EA95E090
:104080009F938F930E94C00683EA95E00E942706C3
:10409000809141041F928F9380EA95E09F938F93C4
:1040A0000E94C0068EE995E00E9427068091400498
:1040B0001F928F938BE995E09F938F930E94C00688
:1040C00088E995E00E9427068DB79EB74C960FB6FB
:1040D000F8949EBF0FBE8DBF82E494E00E947110E1
:1040E0000E94D31D90933F0480933E0408951F9334
:1040F000CF93DF9380913E0490913F040E94EB1D8B
:10410000AC0190914104992321F02091180130E0F5
:1041100006C0209119018AE0289F900111244217BE
:10412000530708F485C080914304C0914404D091A2
:10413000450410914604811107C0C11175C0D11109
:1041400073C0111171C074C09F3F19F09F5F9093AD
:104150004104181624F40E947B1E8093430480912E
:10416000430487FF05C00E947B1E81958093430412
:104170001C1624F40E947B1E809344048091440406
:1041800087FF05C00E947B1E819580934404609147
:104190004304662331F1C0914404CC2311F1062E6F
:1041A000000C770B880B990B0E94372523E333E330
:1041B00043E35FE30E949B250E94FF246093430436
:1041C0006C2FCC0F770B880B990B0E94372523E3BC
:1041D00033E343E35FE30E949B250E94FF24609347
:1041E00044041D1624F40E94C41E8093450480914B
:1041F000450487FF05C00E94C41E81958093450435
:10420000111624F40E94C41E809346048091460433
:1042100087FF05C00E94C41E819580934604DF91EC
:10422000CF911F910C94EA1F9F3F09F08FCFA0CF31
:10423000DF91CF911F910895E2E4F4E085E0DF0182
:104240001D928A95E9F71092410410924004089556
:1042500080914204089582EE97E00E9427061F9203
:1042600081E08F931F9285E08F9384E997E09F937D
:104270008F930E94C0060F900F900F900F900F9099
:104280000F9008958330E9F128F4813061F0823095
:1042900009F10895853009F462C008F449C08630F8
:1042A00009F474C0089580911901262F30E0280F79
:1042B000311D2F3F310524F4680F6093190103C0AD
:1042C0008FEF80931901809119011F928F938DECCC
:1042D00096E072C080911801262F30E0280F311D22
:1042E0002F3F310524F4680F6093180103C08FEF4E
:1042F00080931801809118011F928F938BEB96E0A9
:104300005BC080911701262F30E0280F311D2F3F11
:10431000310524F4680F6093170103C08FEF809379
:104320001701809117011F928F9388EA96E044C08D
:1043300080911601262F30E0280F311D2F3F3105C7
:1043400024F4680F6093160103C08FEF8093160169
:10435000809116011F928F9383E996E02DC0809182
:104360001501262F30E0280F311D2F3F310524F491
:10437000680F6093150103C08FEF80931501809142
:1043800015011F928F938AE796E016C08091140161
:10439000262F30E0280F311D2F3F310524F4680F00
:1043A0006093140103C08FEF809314018091140176
:1043B0001F928F938FE596E09F938F930E94C00684
:1043C0000F900F900F900F900895833081F128F493
:1043D000813059F08230D1F00895853009F449C018
:1043E000B8F1863009F456C0089580911901681714
:1043F00020F4861B8093190102C01092190180914C
:1044000019011F928F9380E596E054C080911801A6
:10441000681720F4861B8093180102C010921801BF
:10442000809118011F928F938EE396E043C0809194
:104430001701681720F4861B8093170102C01092A1
:104440001701809117011F928F938BE296E032C083
:1044500080911601681720F4861B8093160102C014
:1044600010921601809116011F928F9386E196E0BB
:1044700021C080911501681720F4861B80931501D7
:1044800002C010921501809115011F928F938DEF3C
:1044900095E010C080911401681720F4861B80936A
:1044A000140102C010921401809114011F928F9385
:1044B00082EE95E09F938F930E94C0060F900F901D
:1044C0000F900F900895CF93C82F1F928F9387EE70
:1044D00098E09F938F930E94C00681E090E0A0E057
:1044E000B0E0BC01CD0104C0660F771F881F991F83
:1044F000CA95D2F70E94001B0F900F900F900F905B
:10450000CF910C949313CF93873288F58E3108F0B6
:104510000BC18E3009F487C0D8F4873009F460C02D
:104520008B3009F44FC0863009F002C18091380405
:10453000817F8E7F809338048CEE98E00E9427065E
:104540008EE99BE00E94270681E08093480446C0E4
:10455000863109F4B0C020F4803109F47AC0E8C093
:10456000893109F491C08B3109F449C0E1C0883325
:1045700049F150F4893209F4D5C0853309F4D2C029
:10458000873209F0D5C0CEC0833409F4CBC028F4FB
:104590008A3308F4CDC08953C8C0883409F0C8C034
:1045A0000E9493138DE89BE00E9427062FEF83ED76
:1045B00090E3215080409040E1F700C000000E944D
:1045C000201E0CC083E199E041C084E79BE00E947B
:1045D000270680913804816080933804C1E0ADC023
:1045E00080913804C82FC17080FFEFCF80E89BE036
:1045F0000E94270680913804817F8E7F3FC0909172
:10460000380491FBCC27C0F981E0C827892FC0FB73
:1046100081F980933804CC2319F087E69BE029C008
:1046200089E59BE013C09091380492FBCC27C0F938
:1046300081E0C827892FC0FB82F980933804CC23FE
:1046400019F08AE49BE015C08AE39BE00E942706EC
:10465000C5CF9091380493FBCC27C0F981E0C827DF
:10466000892FC0FB83F980933804CC2351F08EE26C
:104670009BE00E9427068091380481608093380473
:104680005CC081E29BE0E2CF82E19BE00E942706D2
:1046900080EE9AE00E94270688E99AE00E942706A9
:1046A00082E79AE00E9427068CE39AE00E942706A0
:1046B00081E19AE0CBCF83E09AE00E9427060E9436
:1046C0001C101F928F9389EE99E09F938F930E9405
:1046D000C006809111011F928F9382ED99E09F9304
:1046E0008F930E94C006809155031F928F938FEB8A
:1046F00099E09F938F930E94C0060E94DF1D9F93B5
:104700008F937F936F9388EA99E09F938F930E9492
:10471000C0068DB79EB742960FB6F8949EBF0FBEE7
:104720008DBF5CCF80E001C08D510E94632256CFC7
:1047300086EA99E00E942706C0E08C2FCF91089569
:1047400080E008950C94A023CF93C82F8091480453
:10475000813089F020F0823009F451C048C1E091E5
:104760001201F09113018281883779F080818434BD
:1047700009F03FC10AC0E0911201F091130182815A
:10478000883719F08081843461F48C2F0E94A22331
:10479000811104C08C2F0E9483222FC081E090E001
:1047A0002CC08C2F0E94A023811126C0C431E1F0BF
:1047B00070F4CB3081F0C031D1F40E942B218FED09
:1047C00098E00E94270682E08093480415C0C93211
:1047D00059F0C83361F48CEE98E00E94270683EE0E
:1047E00098E00E94270608C01092480404C18DED8D
:1047F00098E00E942706FFC081E08170FEC0C432AD
:1048000028F5CE3108F0C1C0CB30A1F1D0F4C730CB
:1048100009F0D3C08EE18093190182E380931801DF
:104820008AE08093170184E18093160188E08093E9
:10483000150188E28093140183E897E00E9427061F
:10484000BFC0C33149F1C431C1F0B7C0CB3409F4A2
:10485000A9C028F4C93289F0C83361F0AEC0C135AF
:1048600009F49EC0C23509F499C0CE3409F0A5C040
:104870006AE09EC00E942B21A3C080914704882338
:1048800019F0109247049CC080E997E00E94270627
:1048900081E080934804B1C08AE697E00E94270631
:1048A00088E597E00E942706809119011F928F9357
:1048B00085E597E09F938F930E94C00683E597E07C
:1048C0000E94270681E497E00E9427068091180144
:1048D0001F928F938EE397E09F938F930E94C00661
:1048E0008CE397E00E9427068DE297E00E9427065E
:1048F000809117011F928F938AE297E09F938F9385
:104900000E94C00688E297E00E94270687E197E0B0
:104910000E942706809116011F928F9384E197E0F1
:104920009F938F930E94C00682E197E00E94270622
:104930008DEF96E00E942706809115011F928F93BC
:104940008AEF96E09F938F930E94C00688EF96E0CF
:104950000E94270681EE96E00E94270680911401AE
:104960001F928F938EED96E09F938F930E94C006C7
:104970008CED96E00E9427068DB79EB748960FB63D
:10498000F8949EBF0FBE8DBF1BC0CE51EC2FF0E040
:10499000E65DFE4F80818093470412C061E003C052
:1049A00061E006C06AE0809147040E94422108C08D
:1049B000809147040E94E52103C081E897E013C07D
:1049C00080914704882369F01F928F938BE797E0CB
:1049D0009F938F930E94C0060F900F900F900F909F
:1049E00004C088E797E00E94270681E006C0109285
:1049F000480480E002C080E000CFCF9108950E947B
:104A000006256894B1110C94952508950E947A2585
:104A100088F09F5798F0B92F9927B751B0F0E1F07F
:104A2000660F771F881F991F1AF0BA95C9F714C02F
:104A3000B13091F00E949425B1E008950C94942532
:104A4000672F782F8827B85F39F0B93FCCF3869568
:104A500077956795B395D9F73EF4909580957095C5
:104A600061957F4F8F4F9F4F0895E89409C097FB42
:104A70003EF490958095709561957F4F8F4F9F4F35
:104A80009923A9F0F92F96E9BB279395F695879579
:104A900077956795B795F111F8CFFAF4BB0F11F43C
:104AA00060FF1BC06F5F7F4F8F4F9F4F16C08823E3
:104AB00011F096E911C0772321F09EE8872F762F19
:104AC00005C0662371F096E8862F70E060E02AF05A
:104AD0009A95660F771F881FDAF7880F9695879546
:104AE00097F9089557FD9058440F551F59F05F3FAF
:104AF00071F04795880F97FB991F61F09F3F79F000
:104B000087950895121613061406551FF2CF469581
:104B1000F1DF08C0161617061806991FF1CF869503
:104B20007105610508940895E894BB2766277727E7
:104B3000CB0197F908950E94AE250C941F260E9480
:104B4000112638F00E94182620F0952311F00C94BD
:104B500008260C940E2611240C9495250E9472258B
:104B600070F3959FC1F3950F50E0551F629FF001C0
:104B7000729FBB27F00DB11D639FAA27F00DB11DD9
:104B8000AA1F649F6627B00DA11D661F829F222762
:104B9000B00DA11D621F739FB00DA11D621F839FE9
:104BA000A00D611D221F749F3327A00D611D231FBF
:104BB000849F600D211D822F762F6A2F11249F570D
:104BC00050409AF0F1F088234AF0EE0FFF1FBB1F10
:104BD000661F771F881F91505040A9F79E3F5105CF
:104BE00080F00C9408260C9495255F3FE4F3983EE2
:104BF000D4F3869577956795B795F795E7959F5F79
:104C0000C1F7FE2B880F911D9695879597F908950A
:104C100097F99F6780E870E060E008959FEF80EC6F
:104C2000089500240A941616170618060906089512
:104C300000240A9412161306140605060895092E78
:104C40000394000C11F4882352F0BB0F40F4BF2BE7
:104C500011F460FF04C06F5F7F4F8F4F9F4F089527
:104C600097FB072E16F4009407D077FD09D00E9419
:104C70004A2607FC05D03EF4909581959F4F0895F4
:104C8000709561957F4F0895EE0FFF1F0590F49189
:104C9000E02D0994AA1BBB1B51E107C0AA1FBB1F33
:104CA000A617B70710F0A61BB70B881F991F5A95B8
:104CB000A9F780959095BC01CD010895F894FFCF98
:104CC000054C020000FF900732080308C70793074E
:104CD00001012E042808140A321E407F2204058593
:104CE0000463040F042804410400010203040506C0
:044CF00007080900A8
:00000001FF
